{
  "_format": "hh3-artifact-1",
  "contractName": "EventOrganizer",
  "sourceName": "contracts/EventOrganizer.sol",
  "abi": [
    {
      "inputs": [],
      "stateMutability": "nonpayable",
      "type": "constructor"
    },
    {
      "inputs": [
        {
          "internalType": "uint256",
          "name": "_eventId",
          "type": "uint256"
        },
        {
          "internalType": "uint256",
          "name": "_quantity",
          "type": "uint256"
        }
      ],
      "name": "buyTickets",
      "outputs": [],
      "stateMutability": "payable",
      "type": "function"
    },
    {
      "inputs": [
        {
          "internalType": "string",
          "name": "_eventName",
          "type": "string"
        },
        {
          "internalType": "uint256",
          "name": "_price",
          "type": "uint256"
        },
        {
          "internalType": "uint256",
          "name": "_totalTickets",
          "type": "uint256"
        },
        {
          "internalType": "uint256",
          "name": "_date",
          "type": "uint256"
        }
      ],
      "name": "createEvent",
      "outputs": [],
      "stateMutability": "nonpayable",
      "type": "function"
    },
    {
      "inputs": [
        {
          "internalType": "uint256",
          "name": "",
          "type": "uint256"
        }
      ],
      "name": "events",
      "outputs": [
        {
          "internalType": "string",
          "name": "eventName",
          "type": "string"
        },
        {
          "internalType": "uint256",
          "name": "id",
          "type": "uint256"
        },
        {
          "internalType": "address",
          "name": "organiser",
          "type": "address"
        },
        {
          "internalType": "uint256",
          "name": "totalTickets",
          "type": "uint256"
        },
        {
          "internalType": "uint256",
          "name": "ticketsRemaining",
          "type": "uint256"
        },
        {
          "internalType": "uint256",
          "name": "price",
          "type": "uint256"
        },
        {
          "internalType": "uint256",
          "name": "date",
          "type": "uint256"
        }
      ],
      "stateMutability": "view",
      "type": "function"
    },
    {
      "inputs": [],
      "name": "getEvents",
      "outputs": [
        {
          "components": [
            {
              "internalType": "string",
              "name": "eventName",
              "type": "string"
            },
            {
              "internalType": "uint256",
              "name": "id",
              "type": "uint256"
            },
            {
              "internalType": "address",
              "name": "organiser",
              "type": "address"
            },
            {
              "internalType": "uint256",
              "name": "totalTickets",
              "type": "uint256"
            },
            {
              "internalType": "uint256",
              "name": "ticketsRemaining",
              "type": "uint256"
            },
            {
              "internalType": "uint256",
              "name": "price",
              "type": "uint256"
            },
            {
              "internalType": "uint256",
              "name": "date",
              "type": "uint256"
            }
          ],
          "internalType": "struct EventOrganizer.Event[]",
          "name": "",
          "type": "tuple[]"
        }
      ],
      "stateMutability": "view",
      "type": "function"
    },
    {
      "inputs": [],
      "name": "owner",
      "outputs": [
        {
          "internalType": "address",
          "name": "",
          "type": "address"
        }
      ],
      "stateMutability": "view",
      "type": "function"
    },
    {
      "inputs": [
        {
          "internalType": "address",
          "name": "",
          "type": "address"
        },
        {
          "internalType": "uint256",
          "name": "",
          "type": "uint256"
        }
      ],
      "name": "tickets",
      "outputs": [
        {
          "internalType": "uint256",
          "name": "",
          "type": "uint256"
        }
      ],
      "stateMutability": "view",
      "type": "function"
    }
  ],
  "bytecode": "0x6080604052348015600e575f5ffd5b50335f5f6101000a81548173ffffffffffffffffffffffffffffffffffffffff021916908373ffffffffffffffffffffffffffffffffffffffff1602179055506117a48061005b5f395ff3fe608060405260043610610054575f3560e01c80630374ab0b146100585780630b79143014610080578063404aa8f9146100c25780638627df46146100ec5780638da5cb5b14610108578063dae7a13c14610132575b5f5ffd5b348015610063575f5ffd5b5061007e60048036038101906100799190610b03565b61016e565b005b34801561008b575f5ffd5b506100a660048036038101906100a19190610b83565b6104cd565b6040516100b99796959493929190610c5c565b60405180910390f35b3480156100cd575f5ffd5b506100d66105b0565b6040516100e39190610e8a565b60405180910390f35b61010660048036038101906101019190610eaa565b610722565b005b348015610113575f5ffd5b5061011c61093f565b6040516101299190610ee8565b60405180910390f35b34801561013d575f5ffd5b5061015860048036038101906101539190610f2b565b610963565b6040516101659190610f69565b60405180910390f35b5f5f9054906101000a900473ffffffffffffffffffffffffffffffffffffffff1673ffffffffffffffffffffffffffffffffffffffff163373ffffffffffffffffffffffffffffffffffffffff16146101fc576040517f08c379a00000000000000000000000000000000000000000000000000000000081526004016101f390610ff2565b60405180910390fd5b80421061023e576040517f08c379a00000000000000000000000000000000000000000000000000000000081526004016102359061105a565b60405180910390fd5b5f8211610280576040517f08c379a0000000000000000000000000000000000000000000000000000000008152600401610277906110e8565b60405180910390fd5b5f83116102c2576040517f08c379a00000000000000000000000000000000000000000000000000000000081526004016102b990611176565b60405180910390fd5b6040518060e0016040528085815260200160035481526020013373ffffffffffffffffffffffffffffffffffffffff1681526020018381526020018381526020018481526020018281525060015f60035481526020019081526020015f205f820151815f0190816103339190611391565b50602082015181600101556040820151816002015f6101000a81548173ffffffffffffffffffffffffffffffffffffffff021916908373ffffffffffffffffffffffffffffffffffffffff160217905550606082015181600301556080820151816004015560a0820151816005015560c0820151816006015590505060026040518060e0016040528086815260200160035481526020013373ffffffffffffffffffffffffffffffffffffffff16815260200184815260200184815260200185815260200183815250908060018154018082558091505060019003905f5260205f2090600702015f909190919091505f820151815f0190816104359190611391565b50602082015181600101556040820151816002015f6101000a81548173ffffffffffffffffffffffffffffffffffffffff021916908373ffffffffffffffffffffffffffffffffffffffff160217905550606082015181600301556080820151816004015560a0820151816005015560c08201518160060155505060035f8154809291906104c29061148d565b919050555050505050565b6001602052805f5260405f205f91509050805f0180546104ec906111c1565b80601f0160208091040260200160405190810160405280929190818152602001828054610518906111c1565b80156105635780601f1061053a57610100808354040283529160200191610563565b820191905f5260205f20905b81548152906001019060200180831161054657829003601f168201915b505050505090806001015490806002015f9054906101000a900473ffffffffffffffffffffffffffffffffffffffff16908060030154908060040154908060050154908060060154905087565b60606002805480602002602001604051908101604052809291908181526020015f905b82821015610719578382905f5260205f2090600702016040518060e00160405290815f82018054610603906111c1565b80601f016020809104026020016040519081016040528092919081815260200182805461062f906111c1565b801561067a5780601f106106515761010080835404028352916020019161067a565b820191905f5260205f20905b81548152906001019060200180831161065d57829003601f168201915b5050505050815260200160018201548152602001600282015f9054906101000a900473ffffffffffffffffffffffffffffffffffffffff1673ffffffffffffffffffffffffffffffffffffffff1673ffffffffffffffffffffffffffffffffffffffff168152602001600382015481526020016004820154815260200160058201548152602001600682015481525050815260200190600101906105d3565b50505050905090565b5f8111610764576040517f08c379a000000000000000000000000000000000000000000000000000000000815260040161075b9061151e565b60405180910390fd5b8060015f8481526020019081526020015f2060050154610784919061153c565b3410156107c6576040517f08c379a00000000000000000000000000000000000000000000000000000000081526004016107bd906115ed565b60405180910390fd5b4260015f8481526020019081526020015f20600601541161081c576040517f08c379a000000000000000000000000000000000000000000000000000000000815260040161081390611655565b60405180910390fd5b8060015f8481526020019081526020015f20600401541015610873576040517f08c379a000000000000000000000000000000000000000000000000000000000815260040161086a906116bd565b60405180910390fd5b8060045f3373ffffffffffffffffffffffffffffffffffffffff1673ffffffffffffffffffffffffffffffffffffffff1681526020019081526020015f205f8481526020019081526020015f205f8282546108ce91906116db565b925050819055508060015f8481526020019081526020015f206004015f8282546108f8919061170e565b9250508190555060015f8381526020019081526020015f20600401546002838154811061092857610927611741565b5b905f5260205f209060070201600401819055505050565b5f5f9054906101000a900473ffffffffffffffffffffffffffffffffffffffff1681565b6004602052815f5260405f20602052805f5260405f205f91509150505481565b5f604051905090565b5f5ffd5b5f5ffd5b5f5ffd5b5f5ffd5b5f601f19601f8301169050919050565b7f4e487b71000000000000000000000000000000000000000000000000000000005f52604160045260245ffd5b6109e28261099c565b810181811067ffffffffffffffff82111715610a0157610a006109ac565b5b80604052505050565b5f610a13610983565b9050610a1f82826109d9565b919050565b5f67ffffffffffffffff821115610a3e57610a3d6109ac565b5b610a478261099c565b9050602081019050919050565b828183375f83830152505050565b5f610a74610a6f84610a24565b610a0a565b905082815260208101848484011115610a9057610a8f610998565b5b610a9b848285610a54565b509392505050565b5f82601f830112610ab757610ab6610994565b5b8135610ac7848260208601610a62565b91505092915050565b5f819050919050565b610ae281610ad0565b8114610aec575f5ffd5b50565b5f81359050610afd81610ad9565b92915050565b5f5f5f5f60808587031215610b1b57610b1a61098c565b5b5f85013567ffffffffffffffff811115610b3857610b37610990565b5b610b4487828801610aa3565b9450506020610b5587828801610aef565b9350506040610b6687828801610aef565b9250506060610b7787828801610aef565b91505092959194509250565b5f60208284031215610b9857610b9761098c565b5b5f610ba584828501610aef565b91505092915050565b5f81519050919050565b5f82825260208201905092915050565b8281835e5f83830152505050565b5f610be082610bae565b610bea8185610bb8565b9350610bfa818560208601610bc8565b610c038161099c565b840191505092915050565b610c1781610ad0565b82525050565b5f73ffffffffffffffffffffffffffffffffffffffff82169050919050565b5f610c4682610c1d565b9050919050565b610c5681610c3c565b82525050565b5f60e0820190508181035f830152610c74818a610bd6565b9050610c836020830189610c0e565b610c906040830188610c4d565b610c9d6060830187610c0e565b610caa6080830186610c0e565b610cb760a0830185610c0e565b610cc460c0830184610c0e565b98975050505050505050565b5f81519050919050565b5f82825260208201905092915050565b5f819050602082019050919050565b5f82825260208201905092915050565b5f610d1382610bae565b610d1d8185610cf9565b9350610d2d818560208601610bc8565b610d368161099c565b840191505092915050565b610d4a81610ad0565b82525050565b610d5981610c3c565b82525050565b5f60e083015f8301518482035f860152610d798282610d09565b9150506020830151610d8e6020860182610d41565b506040830151610da16040860182610d50565b506060830151610db46060860182610d41565b506080830151610dc76080860182610d41565b5060a0830151610dda60a0860182610d41565b5060c0830151610ded60c0860182610d41565b508091505092915050565b5f610e038383610d5f565b905092915050565b5f602082019050919050565b5f610e2182610cd0565b610e2b8185610cda565b935083602082028501610e3d85610cea565b805f5b85811015610e785784840389528151610e598582610df8565b9450610e6483610e0b565b925060208a01995050600181019050610e40565b50829750879550505050505092915050565b5f6020820190508181035f830152610ea28184610e17565b905092915050565b5f5f60408385031215610ec057610ebf61098c565b5b5f610ecd85828601610aef565b9250506020610ede85828601610aef565b9150509250929050565b5f602082019050610efb5f830184610c4d565b92915050565b610f0a81610c3c565b8114610f14575f5ffd5b50565b5f81359050610f2581610f01565b92915050565b5f5f60408385031215610f4157610f4061098c565b5b5f610f4e85828601610f17565b9250506020610f5f85828601610aef565b9150509250929050565b5f602082019050610f7c5f830184610c0e565b92915050565b7f4f6e6c7920746865206f776e65722063616e20637265617465207468652065765f8201527f656e747300000000000000000000000000000000000000000000000000000000602082015250565b5f610fdc602483610bb8565b9150610fe782610f82565b604082019050919050565b5f6020820190508181035f83015261100981610fd0565b9050919050565b7f546865206576656e742063616e6e6f7420626520696e207468652070617374005f82015250565b5f611044601f83610bb8565b915061104f82611010565b602082019050919050565b5f6020820190508181035f83015261107181611038565b9050919050565b7f6576656e742073686f756c6420686176652061746c656173742031207469636b5f8201527f6574000000000000000000000000000000000000000000000000000000000000602082015250565b5f6110d2602283610bb8565b91506110dd82611078565b604082019050919050565b5f6020820190508181035f8301526110ff816110c6565b9050919050565b7f7469636b65742070726963652073686f756c64206265206d6f7265207468616e5f8201527f2030000000000000000000000000000000000000000000000000000000000000602082015250565b5f611160602283610bb8565b915061116b82611106565b604082019050919050565b5f6020820190508181035f83015261118d81611154565b9050919050565b7f4e487b71000000000000000000000000000000000000000000000000000000005f52602260045260245ffd5b5f60028204905060018216806111d857607f821691505b6020821081036111eb576111ea611194565b5b50919050565b5f819050815f5260205f209050919050565b5f6020601f8301049050919050565b5f82821b905092915050565b5f6008830261124d7fffffffffffffffffffffffffffffffffffffffffffffffffffffffffffffffff82611212565b6112578683611212565b95508019841693508086168417925050509392505050565b5f819050919050565b5f61129261128d61128884610ad0565b61126f565b610ad0565b9050919050565b5f819050919050565b6112ab83611278565b6112bf6112b782611299565b84845461121e565b825550505050565b5f5f905090565b6112d66112c7565b6112e18184846112a2565b505050565b5b81811015611304576112f95f826112ce565b6001810190506112e7565b5050565b601f8211156113495761131a816111f1565b61132384611203565b81016020851015611332578190505b61134661133e85611203565b8301826112e6565b50505b505050565b5f82821c905092915050565b5f6113695f198460080261134e565b1980831691505092915050565b5f611381838361135a565b9150826002028217905092915050565b61139a82610bae565b67ffffffffffffffff8111156113b3576113b26109ac565b5b6113bd82546111c1565b6113c8828285611308565b5f60209050601f8311600181146113f9575f84156113e7578287015190505b6113f18582611376565b865550611458565b601f198416611407866111f1565b5f5b8281101561142e57848901518255600182019150602085019450602081019050611409565b8683101561144b5784890151611447601f89168261135a565b8355505b6001600288020188555050505b505050505050565b7f4e487b71000000000000000000000000000000000000000000000000000000005f52601160045260245ffd5b5f61149782610ad0565b91507fffffffffffffffffffffffffffffffffffffffffffffffffffffffffffffffff82036114c9576114c8611460565b5b600182019050919050565b7f796f75206e65656420746f206275792061746c656173742031207469636b65745f82015250565b5f611508602083610bb8565b9150611513826114d4565b602082019050919050565b5f6020820190508181035f830152611535816114fc565b9050919050565b5f61154682610ad0565b915061155183610ad0565b925082820261155f81610ad0565b9150828204841483151761157657611575611460565b5b5092915050565b7f7061792066756c6c20616d6f756e7420666f7220746865206e756d626572206f5f8201527f66207469636b65747320796f752077616e7420746f2062757900000000000000602082015250565b5f6115d7603983610bb8565b91506115e28261157d565b604082019050919050565b5f6020820190508181035f830152611604816115cb565b9050919050565b7f6576656e742068617320616c7265616479207061737365642e000000000000005f82015250565b5f61163f601983610bb8565b915061164a8261160b565b602082019050919050565b5f6020820190508181035f83015261166c81611633565b9050919050565b7f6e6f7420656e6f756768207469636b657473206c6566740000000000000000005f82015250565b5f6116a7601783610bb8565b91506116b282611673565b602082019050919050565b5f6020820190508181035f8301526116d48161169b565b9050919050565b5f6116e582610ad0565b91506116f083610ad0565b925082820190508082111561170857611707611460565b5b92915050565b5f61171882610ad0565b915061172383610ad0565b925082820390508181111561173b5761173a611460565b5b92915050565b7f4e487b71000000000000000000000000000000000000000000000000000000005f52603260045260245ffdfea2646970667358221220b0db1a345b8f803883d1949825d3666cef868918fa58b888d5df6049022af24f64736f6c634300081c0033",
  "linkReferences": {},
  "deployedLinkReferences": {},
  "immutableReferences": {},
  "inputSourceName": "project/contracts/EventOrganizer.sol",
  "buildInfoId": "solc-0_8_28-362f23f51f3e814fd73dc0df7c53a8fcf6030b45"
}