{
    "_format": "hh3-artifact-1",
    "contractName": "EventOrganizer",
    "sourceName": "contracts/EventOrganizer.sol",
    "abi": [
        {
            "inputs": [
                {
                    "internalType": "uint256",
                    "name": "_eventId",
                    "type": "uint256"
                },
                {
                    "internalType": "uint256",
                    "name": "_quantity",
                    "type": "uint256"
                }
            ],
            "name": "buyTickets",
            "outputs": [],
            "stateMutability": "payable",
            "type": "function"
        },
        {
            "inputs": [
                {
                    "internalType": "string",
                    "name": "_eventName",
                    "type": "string"
                },
                {
                    "internalType": "uint256",
                    "name": "_price",
                    "type": "uint256"
                },
                {
                    "internalType": "uint256",
                    "name": "_totalTickets",
                    "type": "uint256"
                },
                {
                    "internalType": "uint256",
                    "name": "_date",
                    "type": "uint256"
                }
            ],
            "name": "createEvent",
            "outputs": [],
            "stateMutability": "nonpayable",
            "type": "function"
        },
        {
            "inputs": [
                {
                    "internalType": "uint256",
                    "name": "",
                    "type": "uint256"
                }
            ],
            "name": "events",
            "outputs": [
                {
                    "internalType": "string",
                    "name": "eventName",
                    "type": "string"
                },
                {
                    "internalType": "address",
                    "name": "organiser",
                    "type": "address"
                },
                {
                    "internalType": "uint256",
                    "name": "totalTickets",
                    "type": "uint256"
                },
                {
                    "internalType": "uint256",
                    "name": "ticketsRemaining",
                    "type": "uint256"
                },
                {
                    "internalType": "uint256",
                    "name": "price",
                    "type": "uint256"
                },
                {
                    "internalType": "uint256",
                    "name": "date",
                    "type": "uint256"
                }
            ],
            "stateMutability": "view",
            "type": "function"
        },
        {
            "inputs": [
                {
                    "internalType": "address",
                    "name": "",
                    "type": "address"
                },
                {
                    "internalType": "uint256",
                    "name": "",
                    "type": "uint256"
                }
            ],
            "name": "tickets",
            "outputs": [
                {
                    "internalType": "uint256",
                    "name": "",
                    "type": "uint256"
                }
            ],
            "stateMutability": "view",
            "type": "function"
        }
    ],
    "bytecode": "0x6080604052348015600e575f5ffd5b506110fe8061001c5f395ff3fe60806040526004361061003e575f3560e01c80630374ab0b146100425780630b7914301461006a5780638627df46146100ab578063dae7a13c146100c7575b5f5ffd5b34801561004d575f5ffd5b5061006860048036038101906100639190610719565b610103565b005b348015610075575f5ffd5b50610090600480360381019061008b9190610799565b6102c0565b6040516100a296959493929190610872565b60405180910390f35b6100c560048036038101906100c091906108d8565b61039c565b005b3480156100d2575f5ffd5b506100ed60048036038101906100e89190610940565b610579565b6040516100fa919061097e565b60405180910390f35b804210610145576040517f08c379a000000000000000000000000000000000000000000000000000000000815260040161013c906109e1565b60405180910390fd5b5f8211610187576040517f08c379a000000000000000000000000000000000000000000000000000000000815260040161017e90610a6f565b60405180910390fd5b5f83116101c9576040517f08c379a00000000000000000000000000000000000000000000000000000000081526004016101c090610afd565b60405180910390fd5b6040518060c001604052808581526020013373ffffffffffffffffffffffffffffffffffffffff168152602001838152602001838152602001848152602001828152505f5f60015481526020019081526020015f205f820151815f0190816102319190610d18565b506020820151816001015f6101000a81548173ffffffffffffffffffffffffffffffffffffffff021916908373ffffffffffffffffffffffffffffffffffffffff16021790555060408201518160020155606082015181600301556080820151816004015560a0820151816005015590505060015f8154809291906102b590610e14565b919050555050505050565b5f602052805f5260405f205f91509050805f0180546102de90610b48565b80601f016020809104026020016040519081016040528092919081815260200182805461030a90610b48565b80156103555780601f1061032c57610100808354040283529160200191610355565b820191905f5260205f20905b81548152906001019060200180831161033857829003601f168201915b505050505090806001015f9054906101000a900473ffffffffffffffffffffffffffffffffffffffff16908060020154908060030154908060040154908060050154905086565b5f81116103de576040517f08c379a00000000000000000000000000000000000000000000000000000000081526004016103d590610ea5565b60405180910390fd5b805f5f8481526020019081526020015f20600401546103fd9190610ec3565b34101561043f576040517f08c379a000000000000000000000000000000000000000000000000000000000815260040161043690610f74565b60405180910390fd5b425f5f8481526020019081526020015f206005015411610494576040517f08c379a000000000000000000000000000000000000000000000000000000000815260040161048b90610fdc565b60405180910390fd5b805f5f8481526020019081526020015f206003015410156104ea576040517f08c379a00000000000000000000000000000000000000000000000000000000081526004016104e190611044565b60405180910390fd5b8060025f3373ffffffffffffffffffffffffffffffffffffffff1673ffffffffffffffffffffffffffffffffffffffff1681526020019081526020015f205f8481526020019081526020015f205f8282546105459190611062565b92505081905550805f5f8481526020019081526020015f206003015f82825461056e9190611095565b925050819055505050565b6002602052815f5260405f20602052805f5260405f205f91509150505481565b5f604051905090565b5f5ffd5b5f5ffd5b5f5ffd5b5f5ffd5b5f601f19601f8301169050919050565b7f4e487b71000000000000000000000000000000000000000000000000000000005f52604160045260245ffd5b6105f8826105b2565b810181811067ffffffffffffffff82111715610617576106166105c2565b5b80604052505050565b5f610629610599565b905061063582826105ef565b919050565b5f67ffffffffffffffff821115610654576106536105c2565b5b61065d826105b2565b9050602081019050919050565b828183375f83830152505050565b5f61068a6106858461063a565b610620565b9050828152602081018484840111156106a6576106a56105ae565b5b6106b184828561066a565b509392505050565b5f82601f8301126106cd576106cc6105aa565b5b81356106dd848260208601610678565b91505092915050565b5f819050919050565b6106f8816106e6565b8114610702575f5ffd5b50565b5f81359050610713816106ef565b92915050565b5f5f5f5f60808587031215610731576107306105a2565b5b5f85013567ffffffffffffffff81111561074e5761074d6105a6565b5b61075a878288016106b9565b945050602061076b87828801610705565b935050604061077c87828801610705565b925050606061078d87828801610705565b91505092959194509250565b5f602082840312156107ae576107ad6105a2565b5b5f6107bb84828501610705565b91505092915050565b5f81519050919050565b5f82825260208201905092915050565b8281835e5f83830152505050565b5f6107f6826107c4565b61080081856107ce565b93506108108185602086016107de565b610819816105b2565b840191505092915050565b5f73ffffffffffffffffffffffffffffffffffffffff82169050919050565b5f61084d82610824565b9050919050565b61085d81610843565b82525050565b61086c816106e6565b82525050565b5f60c0820190508181035f83015261088a81896107ec565b90506108996020830188610854565b6108a66040830187610863565b6108b36060830186610863565b6108c06080830185610863565b6108cd60a0830184610863565b979650505050505050565b5f5f604083850312156108ee576108ed6105a2565b5b5f6108fb85828601610705565b925050602061090c85828601610705565b9150509250929050565b61091f81610843565b8114610929575f5ffd5b50565b5f8135905061093a81610916565b92915050565b5f5f60408385031215610956576109556105a2565b5b5f6109638582860161092c565b925050602061097485828601610705565b9150509250929050565b5f6020820190506109915f830184610863565b92915050565b7f546865206576656e742063616e6e6f7420626520696e207468652070617374005f82015250565b5f6109cb601f836107ce565b91506109d682610997565b602082019050919050565b5f6020820190508181035f8301526109f8816109bf565b9050919050565b7f6576656e742073686f756c6420686176652061746c656173742031207469636b5f8201527f6574000000000000000000000000000000000000000000000000000000000000602082015250565b5f610a596022836107ce565b9150610a64826109ff565b604082019050919050565b5f6020820190508181035f830152610a8681610a4d565b9050919050565b7f7469636b65742070726963652073686f756c64206265206d6f7265207468616e5f8201527f2030000000000000000000000000000000000000000000000000000000000000602082015250565b5f610ae76022836107ce565b9150610af282610a8d565b604082019050919050565b5f6020820190508181035f830152610b1481610adb565b9050919050565b7f4e487b71000000000000000000000000000000000000000000000000000000005f52602260045260245ffd5b5f6002820490506001821680610b5f57607f821691505b602082108103610b7257610b71610b1b565b5b50919050565b5f819050815f5260205f209050919050565b5f6020601f8301049050919050565b5f82821b905092915050565b5f60088302610bd47fffffffffffffffffffffffffffffffffffffffffffffffffffffffffffffffff82610b99565b610bde8683610b99565b95508019841693508086168417925050509392505050565b5f819050919050565b5f610c19610c14610c0f846106e6565b610bf6565b6106e6565b9050919050565b5f819050919050565b610c3283610bff565b610c46610c3e82610c20565b848454610ba5565b825550505050565b5f5f905090565b610c5d610c4e565b610c68818484610c29565b505050565b5b81811015610c8b57610c805f82610c55565b600181019050610c6e565b5050565b601f821115610cd057610ca181610b78565b610caa84610b8a565b81016020851015610cb9578190505b610ccd610cc585610b8a565b830182610c6d565b50505b505050565b5f82821c905092915050565b5f610cf05f1984600802610cd5565b1980831691505092915050565b5f610d088383610ce1565b9150826002028217905092915050565b610d21826107c4565b67ffffffffffffffff811115610d3a57610d396105c2565b5b610d448254610b48565b610d4f828285610c8f565b5f60209050601f831160018114610d80575f8415610d6e578287015190505b610d788582610cfd565b865550610ddf565b601f198416610d8e86610b78565b5f5b82811015610db557848901518255600182019150602085019450602081019050610d90565b86831015610dd25784890151610dce601f891682610ce1565b8355505b6001600288020188555050505b505050505050565b7f4e487b71000000000000000000000000000000000000000000000000000000005f52601160045260245ffd5b5f610e1e826106e6565b91507fffffffffffffffffffffffffffffffffffffffffffffffffffffffffffffffff8203610e5057610e4f610de7565b5b600182019050919050565b7f796f75206e65656420746f206275792061746c656173742031207469636b65745f82015250565b5f610e8f6020836107ce565b9150610e9a82610e5b565b602082019050919050565b5f6020820190508181035f830152610ebc81610e83565b9050919050565b5f610ecd826106e6565b9150610ed8836106e6565b9250828202610ee6816106e6565b91508282048414831517610efd57610efc610de7565b5b5092915050565b7f7061792066756c6c20616d6f756e7420666f7220746865206e756d626572206f5f8201527f66207469636b65747320796f752077616e7420746f2062757900000000000000602082015250565b5f610f5e6039836107ce565b9150610f6982610f04565b604082019050919050565b5f6020820190508181035f830152610f8b81610f52565b9050919050565b7f6576656e742068617320616c7265616479207061737365642e000000000000005f82015250565b5f610fc66019836107ce565b9150610fd182610f92565b602082019050919050565b5f6020820190508181035f830152610ff381610fba565b9050919050565b7f6e6f7420656e6f756768207469636b657473206c6566740000000000000000005f82015250565b5f61102e6017836107ce565b915061103982610ffa565b602082019050919050565b5f6020820190508181035f83015261105b81611022565b9050919050565b5f61106c826106e6565b9150611077836106e6565b925082820190508082111561108f5761108e610de7565b5b92915050565b5f61109f826106e6565b91506110aa836106e6565b92508282039050818111156110c2576110c1610de7565b5b9291505056fea26469706673582212207bcaa3c209e825df81561af6de2bda8b99a70ead2557867dd5449bb3e336307564736f6c634300081c0033",
    "linkReferences": {},
    "deployedLinkReferences": {},
    "immutableReferences": {},
    "inputSourceName": "project/contracts/EventOrganizer.sol",
    "buildInfoId": "solc-0_8_28-113e1f22913db9e3349c3bd10418b0573b4343ab"
}